:100000000C94DF000C9407010C9407010C94070179
:100010000C9407010C9407010C9407010C94070140
:100020000C9407010C9407010C9407010C94070130
:100030000C9407010C9407010C9407010C94070120
:100040000C94B7030C9407010C9427040C9401043E
:100050000C9407010C9407010C9407010C94070100
:100060000C9407010C94070100407A10F35A00A089
:10007000724E18090010A5D4E80000E87648170071
:1000800000E40B54020000CA9A3B000000E1F505B1
:10009000000080969800000040420F000000A086FB
:1000A00001000000102700000000E803000000002D
:1000B0006400000000000A000000000001000000D1
:1000C00000002C76D888DC674F0823DFC1DFAE59EB
:1000D000E1B1B796E5E3E453C63AE651997696E87E
:1000E000E6C28426EB898C9B62ED407C6FFCEFBC02
:1000F0009C9F40F2BAA56FA5F490055A2AF75C932D
:100100006B6CF9676DC11BFCE0E40D47FEF520E662
:10011000B500D0ED902E0300943577050080841E45
:10012000080000204E0A000000C80C333333330FA0
:10013000986E12831141EF8D2114893BE65516CF3D
:10014000FEE6DB18D1844B381BF77C1D901DA4BB49
:10015000E424203284725E228100C9F124ECA1E5FE
:100160003D270000000023002600290000000000B9
:10017000240027002A0000000000250028002B0092
:10018000040404040404040402020202020203033D
:100190000303030301020408102040800102040845
:1001A00010200102040810200000000800020100D5
:1001B0000003040700000000000000008A0611246C
:1001C0001FBECFEFD8E0DEBFCDBF11E0A0E0B1E0B1
:1001D000ECEFF9E102C005900D92AC31B107D9F70F
:1001E00021E0ACE1B1E001C01D92A63CB207E1F70D
:1001F00010E0CFEDD0E004C02197FE010E94FF0A7D
:10020000CE3DD107C9F70E949E040C94FC0C0C94BF
:100210000000833081F028F4813099F08230A9F019
:1002200008958730A9F08830C9F08430B1F4809106
:1002300080008F7D03C0809180008F778093800045
:10024000089584B58F7784BD089584B58F7DFBCFE5
:100250008091B0008F778093B00008958091B000B6
:100260008F7DF9CF1F93CF93DF93EDEAF1E0949167
:10027000E9E9F1E0D491E5E8F1E0C491CC23B9F0EB
:10028000182F992319F0892F0E940901EC2FF0E013
:10029000EE0FFF1FEA58FE4FA591B4918FB7F89467
:1002A000EC91111108C0D095DE23DC938FBFDF9154
:1002B000CF911F910895DE2BF8CFCF93DF9390E07D
:1002C000FC01EC56FE4F249180589E4FFC01849116
:1002D0008823D1F090E0880F991FFC01E459FE4F6C
:1002E000A591B491FC01EA58FE4FC591D4916111DA
:1002F0000EC09FB7F8948C91E22FE0958E238C93DB
:100300002881E223E8839FBFDF91CF9108958FB7C3
:10031000F894EC91E22BEC938FBFF6CF8E50806473
:1003200080937C0080917A00806480937A00809131
:100330007A0086FDFCCF8091780090917900089535
:10034000AF92BF92CF92DF92EF92FF920F931F93E3
:10035000CF93DF936C017B018B01040F151FEB0121
:100360005E01AE18BF08C017D10759F06991D601D8
:10037000ED91FC910190F081E02DC6010995892B4A
:1003800079F7C501DF91CF911F910F91FF90EF9009
:10039000DF90CF90BF90AF900895FC01538D448DB6
:1003A000252F30E0842F90E0821B930B541710F020
:1003B000CF96089501970895FC01918D828D98172D
:1003C00061F0A28DAE0FBF2FB11D5D968C91928D05
:1003D0009F5F9F73928F90E008958FEF9FEF089536
:1003E000FC01918D828D981731F0828DE80FF11DFF
:1003F000858D90E008958FEF9FEF0895FC01918D1A
:10040000228D892F90E0805C9F4F821B91098F7312
:10041000992708958CE191E00E94FE0121E0892B4B
:1004200009F420E0822F089580E090E0892B29F0E4
:100430000E940A0281110C9400000895FC01A48D11
:10044000A80FB92FB11DA35ABF4F2C91848D90E0F6
:1004500001968F739927848FA689B7892C93A089D9
:10046000B1898C91837080648C93938D848D981363
:1004700006C00288F389E02D80818F7D80830895F6
:10048000EF92FF920F931F93CF93DF93EC0181E0E4
:10049000888F9B8D8C8D98131AC0E889F98980818B
:1004A00085FF15C09FB7F894EE89FF896083E889BE
:1004B000F98980818370806480839FBF81E090E0B0
:1004C000DF91CF911F910F91FF90EF900895F62E3D
:1004D0000B8D10E00F5F1F4F0F731127E02E8C8DD7
:1004E0008E110CC00FB607FCFACFE889F98980811C
:1004F00085FFF5CFCE010E941E02F1CFEB8DEC0FF0
:10050000FD2FF11DE35AFF4FF0829FB7F8940B8F38
:10051000EA89FB8980818062CFCFCF93DF93EC01A2
:10052000888D8823B9F0AA89BB89E889F9898C91DB
:1005300085FD03C0808186FD0DC00FB607FCF7CF97
:100540008C9185FFF2CF808185FFEDCFCE010E9497
:100550001E02E9CFDF91CF910895CF93DF93EC0195
:1005600088819981009711F00E94A60B1982188248
:100570001D821C821B821A82DF91CF910895FC019B
:1005800080819181009711F00C94A60B08950F9330
:100590001F93CF93DF93EC0188819981009759F0E5
:1005A0002A813B812617370730F081E0DF91CF9118
:1005B0001F910F9108958B016F5F7F4F0E942F0C49
:1005C000009759F0998388831B830A832C813D818E
:1005D000232B59F7FC011082E8CF80E0E7CFEF92A0
:1005E000FF920F931F93CF93DF93EC01FB01E08009
:1005F000F180E114F10411F1048115810115110557
:10060000A9F08C819D81080F191FB801CE010E94AD
:10061000C702882399F0288139818C819D81B70197
:10062000820F931F0E94F50C1D830C83CE01DF9176
:10063000CF911F910F91FF90EF900895CE010E94EE
:10064000AD02F4CFEF92FF920F931F93CF93DF93FE
:1006500000D0CDB7DEB78C0180E289831A82F80121
:10066000E480F580FFEFEF1AFF0AB701C8010E948E
:10067000C7028823C9F0F8012081318184819581E6
:10068000BE016F5F7F4F820F931F0E94F50CF80130
:10069000F582E482C8010F900F90DF91CF911F91F6
:1006A0000F91FF90EF900895C8010E94AD02F2CF24
:1006B000EF92FF920F931F93CF93DF93EC017B0197
:1006C0008A01BA010E94C70281110BC0CE010E94AB
:1006D000AD02CE01DF91CF911F910F91FF90EF906E
:1006E00008951D830C83B701888199810E94F50CC0
:1006F000F0CFEF92FF920F931F93CF93DF93CDB77D
:10070000DEB7A1970FB6F894DEBF0FBECDBF7C0158
:10071000CB01BA01F7011182108213821282158275
:1007200014828E010F5F1F4F22E044E00E94B70643
:100730000097C9F0FC0101900020E9F73197AF0163
:10074000481B590BBC01C7010E945803A1960FB664
:10075000F894DEBF0FBECDBFDF91CF911F910F91F7
:10076000FF90EF900895C7010E94AD02EFCF1F9256
:100770000F920FB60F9211242F933F938F939F9355
:10078000AF93BF938091BE019091BF01A091C00132
:10079000B091C1013091BD0123E0230F2D3758F5F1
:1007A0000196A11DB11D2093BD018093BE019093C0
:1007B000BF01A093C001B093C1018091B901909194
:1007C000BA01A091BB01B091BC010196A11DB11D60
:1007D0008093B9019093BA01A093BB01B093BC017F
:1007E000BF91AF919F918F913F912F910F900FBE2D
:1007F0000F901F90189526E8230F0296A11DB11D9A
:10080000D2CF1F920F920FB60F9211242F933F93C6
:100810004F935F936F937F938F939F93AF93BF9308
:10082000EF93FF938CE191E00E941E02FF91EF9104
:10083000BF91AF919F918F917F916F915F914F91F8
:100840003F912F910F900FBE0F901F9018951F9200
:100850000F920FB60F9211242F938F939F93EF93C4
:10086000FF93E0912C01F0912D018081E091320104
:10087000F091330182FD1BC09081809135018F5F23
:100880008F7320913601821741F0E0913501F0E03D
:10089000E45EFE4F958F80933501FF91EF919F911C
:1008A0008F912F910F900FBE0F901F901895808100
:1008B000F4CFCF92DF92EF92FF920F931F93E82F26
:1008C000F92F05C0015011092109310961F1908109
:1008D00096239417B9F305C0015011092109310974
:1008E00011F1908196239413F7CFC12CD12CE12CD8
:1008F000F12C0AC08FEFC81AD80AE80AF80A0C15BA
:100900001D052E053F0579F080818623841791F31C
:100910006C2D7D2D8E2D9F2D1F910F91FF90EF90AF
:10092000DF90CF90089560E070E080E090E01F914C
:100930000F91FF90EF90DF90CF900895CF93DF93CA
:10094000CDB7DEB7AA970FB6F894DEBF0FBECDBF06
:10095000789484B5826084BD84B5816084BD85B59A
:10096000826085BD85B5816085BD80916E008160A6
:1009700080936E001092810080918100826080934C
:10098000810080918100816080938100809180004E
:100990008160809380008091B10084608093B10079
:1009A0008091B00081608093B00080917A00846073
:1009B00080937A0080917A00826080937A0080919F
:1009C0007A00816080937A0080917A0080688093B9
:1009D0007A001092C100E0912C01F0912D0182E08B
:1009E0008083E0912801F09129011082E0912A0191
:1009F000F0912B0187E6808310923401E091300161
:100A0000F091310186E08083E0912E01F0912F0179
:100A1000808180618083E0912E01F0912F0180819F
:100A200088608083E0912E01F0912F0180818068A1
:100A30008083E0912E01F0912F0180818F7D808352
:100A400060E08EE00E945D0160E08FE00E945D0149
:100A500060E088E00E945D0161E085E00E945D0148
:100A600060E086E00E945D0123E2222E312CCE015F
:100A700001967C018EE00E948E016C018FE00E9445
:100A80008E018C019601DD0C440B550B2150310970
:100A900041095109A8E1BCEF0E94920A2FEF33E00F
:100AA00040E050E00E94650ACA01B9016C507E4FD7
:100AB0008F4F9F4F0E9448094B015C01012E000C93
:100AC000220B330BA9019801215031094109510929
:100AD000A8E1BCEF0E94920A2FEF33E040E050E023
:100AE0000E94650ACA01B9016C507E4F8F4F9F4F1B
:100AF0000E9448092B013C0120E030E040E85FE320
:100B0000C501B4010E94410987FF0DC020E030E01B
:100B100040EA51ECC501B4010E94050B18161CF403
:100B2000812C912C540120E030E040EA51E4C301D3
:100B3000B2010E94410987FF0DC020E030E040EA89
:100B400050ECC301B2010E94050B18161CF4412C95
:100B5000512C320180E00E94320183E090E0019745
:100B6000F1F781E00E943201C1010197F1F780E0C5
:100B70000E943201EAE9F1E06491E6E8F1E0849153
:100B8000E82FF0E0EE0FFF1FEE59FE4F8591949194
:100B900000E412E42FE030E0462F0E945904611572
:100BA00071058105910529F06F5F7F4F8F4F9F4F32
:100BB0009F700E9448092BEB38EB4DE05DE30E94EB
:100BC000A70920E030E040E05FE30E94A709AB0105
:100BD000BC01CE0143960E947903E0EBF1E08491E1
:100BE000ECE9F1E01491E8E8F1E00491002309F464
:100BF0008EC081110E940901E02FF0E0EE0FFF1F6F
:100C0000EE59FE4FA591B491EC911E2331E020E006
:100C100009F430E0832F922F1A8E198E1C8E1B8EB2
:100C20001E8E1D8E4AE0B701F1E08F270E94D50687
:100C3000F70101900020E9F73197AF014E195F09E4
:100C4000B701CE0149960E945803B301A201C70122
:100C50000E947903B501A401CE0185960E94790313
:100C600018A21F8E1AA219A21CA21BA26DA17EA1FE
:100C70006115710531F049A55AA5CE014F960E9424
:100C80005803CE014F960E942203B7010E94EF0243
:100C90000E942203BE01675E7F4F0E94EF020E9406
:100CA0002203BE016D5E7F4F0E94EF02FC01448172
:100CB0005581608171818CE191E00E94A00142E048
:100CC00050E068E171E08CE191E00E94A001CE016A
:100CD0004F960E94BF02CE0185960E94BF02C701B7
:100CE0000E94BF02CE0149960E94BF02CE014396E8
:100CF0000E94BF0280E090E0892B09F4BBCE0E94E5
:100D00000A02882309F4B6CE0E940000B3CE90E018
:100D100080E082CFECE1F1E01382128288EE93E072
:100D2000A0E0B0E084839583A683B7838AE091E056
:100D30009183808385EC90E09587848784EC90E0B4
:100D40009787868780EC90E0918B808B81EC90E098
:100D5000938B828B82EC90E0958B848B86EC90E079
:100D6000978B868B118E128E138E148E0895EF92B0
:100D70000F931F93CF93DF93E80134E047FD34E1F5
:100D8000042E000C550B57FF03C051954195510996
:100D9000E32E022F242FAE010E94FA06CE01DF912E
:100DA000CF911F910F91EF900895BB274A3031F4F6
:100DB000992322F4BDE2909581959F4F0C94E10612
:100DC000BB27FB015527AA27880F991FAA1FA41725
:100DD00010F0A41B83955051B9F7A05DAA3308F019
:100DE000A95DA193009779F7B111B1931192CB014D
:100DF0000C943109A9E0B0E0E0E0F7E00C949D0A22
:100E00006A01F22EB02E102FFBE3AF2EA01608F4CD
:100E10001BE31F5F012F27E0AE014F5F5F4F0E9472
:100E20005908BC018981982F9970913009F43FC00D
:100E30009BE2E1FC04C09E2D9170E0FC3AC05E2D67
:100E40005071E82FE87083FF46C084E0911101C023
:100E500083E0EF2DE81B8F1508F0E0E0D6018E2F20
:100E600020E2552351F1992329F0D6019C93C60124
:100E700001966C0196012D5F3F4FE2FE24C08EE487
:100E8000D6018C9391E411969C93119712968C93B2
:100E9000D9018E2F90E281111BC0E20FF32FF11DBB
:100EA00010828EEF9FEF2996ECE00C94B90A9DE238
:100EB000C6CF90E2C4CF2D9381508111FCCFCE0ECE
:100EC000D11CE0E0D0CF8EE6D6018C9391E6DBCF4B
:100ED0009D938150E0CF482F447082FF3DC084E055
:100EE000911101C083E08F1510F4EF2DE81BD6019E
:100EF0008E2F20E2552309F1992329F0D6019C93E6
:100F0000C60101966C0196012D5F3F4FE2FE1BC0AA
:100F100089E4D6018C938EE411968C93119786E424
:100F200012968C93D9018E2F90E2882309F4B5CFC5
:100F30009D938150FACF2D9381508111FCCFCE0E1D
:100F4000D11CE0E0D9CF89E6D6018C938EE61196CC
:100F50008C93119786E6E4CF9B0177FF02C030E0C7
:100F600020E0A1E0B0E0911102C0B0E0A0E0F90102
:100F70003196AE0FBF1F8B2C912CBB2009F461C0A2
:100F80005401EFEFAE1ABE0AAA0DBB1DFA161B06DE
:100F900019F014F04F2D4A1B511188C0E3FC59C0C1
:100FA0007601A42FB0E2A1114FC0C40ED11C992329
:100FB00009F45BC040E0D6011196F60190836D0103
:100FC000552309F448C0012F060F9A81582F5071FC
:100FD00084FF03C0913309F4015010160CF047C090
:100FE000093008F008E0EEE2FE2E5B01A01AB1081D
:100FF00085019194819491082F3F320729F4D601FD
:10100000FC92F60131966F016217730794F1021793
:1010100013077CF5DB01A21BB30BAA24A394B12C0C
:10102000AC0EBD1EAA0DBB1D11968C91215031092D
:10103000D601119628153905F4F0F60180836D016B
:10104000DBCFB12CA12CA0CFF701B1937F01A15030
:10105000AACF9111B0CFD601942F50E302C05D9377
:1010600091509111FCCFC40ED11C40E0ACCF01E0F7
:10107000BACF80E3DBCF6217730731F4963388F47D
:10108000953311F4552369F0F6018083FD01842F17
:1010900090E2811108C0A40FB11D1C9290E080E085
:1010A00002CF81E3F1CF91938150F3CF911183CFA0
:1010B0008ACF283008F027E03327DA01990F311D55
:1010C00087FD916000966105710539F432602E5FED
:1010D0003D9330E32A95E1F708959F3F30F0803843
:1010E0007105610509F03C5F3C5F3D93913008F06C
:1010F0008068911DDF93CF931F930F93FF92EF9220
:10110000192F987F9695E92F96959695E90FFF27C9
:10111000EE53FF4F99273327EE24FF24A701E70161
:1011200005900894079428F4360FE71EF81E491F0F
:10113000511D660F771F881F991F0694A1F7059010
:10114000079428F4E70EF81E491F561FC11D770F9C
:10115000881F991F661F0694A1F70590079428F42D
:10116000F80E491F561FC71FD11D880F991F661FF4
:10117000771F0694A1F70590079420F4490F561F96
:10118000C71FD81F990F661F771F881F0694A9F7DE
:1011900084911095177041F0D695C795579547954E
:1011A000F794E7941A95C1F7E8E6F0E06894159093
:1011B000159135916591959105907FE27395E118B0
:1011C000F10A430B560BC90BD009C0F7E10CF11E15
:1011D000431F561FC91FD01D7EF4703311F48A952A
:1011E000E6CFE894015030F0080F0AF40027021708
:1011F00008F4202F2395022F7A3328F079E37D938A
:101200002A95E9F710C07D932A9589F6069497955B
:101210006795379517951794E118F10A430B560B0C
:10122000C90BD00998F023957E9173957A3308F015
:1012300070E37C932013B8F77E9170617D9330F05A
:10124000839571E37D9370E32A95E1F71124EF9084
:10125000FF900F911F91CF91DF91992787FD909576
:101260000895DC01FC01672F71917723E1F7329734
:1012700004C07C916D9370836291AE17BF07C8F371
:1012800008950E94830908F481E00895E89409C054
:1012900097FB3EF490958095709561957F4F8F4FA9
:1012A0009F4F9923A9F0F92F96E9BB279395F695BF
:1012B000879577956795B795F111F8CFFAF4BB0F3D
:1012C00011F460FF1BC06F5F7F4F8F4F9F4F16C0A1
:1012D000882311F096E911C0772321F09EE8872F2B
:1012E000762F05C0662371F096E8862F70E060E0E7
:1012F0002AF09A95660F771F881FDAF7880F969560
:10130000879597F90895990F0008550FAA0BE0E803
:10131000FEEF16161706E807F907C0F012161306B7
:10132000E407F50798F0621B730B840B950B39F4F7
:101330000A2661F0232B242B252B21F408950A265D
:1013400009F4A140A6958FEF811D811D08950E948B
:10135000BA090C942B0A0E941D0A38F00E94240A34
:1013600020F0952311F00C94140A0C941A0A1124FD
:101370000C945F0A0E943C0A70F3959FC1F3950F8D
:1013800050E0551F629FF001729FBB27F00DB11D09
:10139000639FAA27F00DB11DAA1F649F6627B00D99
:1013A000A11D661F829F2227B00DA11D621F739F82
:1013B000B00DA11D621F839FA00D611D221F749F90
:1013C0003327A00D611D231F849F600D211D822FD7
:1013D000762F6A2F11249F5750409AF0F1F08823FE
:1013E0004AF0EE0FFF1FBB1F661F771F881F91502B
:1013F0005040A9F79E3F510580F00C94140A0C94BC
:101400005F0A5F3FE4F3983ED4F38695779567953E
:10141000B795F795E7959F5FC1F7FE2B880F911D54
:101420009695879597F9089597F99F6780E870E0FA
:1014300060E008959FEF80EC089500240A9416164A
:10144000170618060906089500240A9412161306B2
:10145000140605060895092E0394000C11F4882340
:1014600052F0BB0F40F4BF2B11F460FF04C06F5F5C
:101470007F4F8F4F9F4F089557FD9058440F551F32
:1014800059F05F3F71F04795880F97FB991F61F006
:101490009F3F79F087950895121613061406551F7D
:1014A000F2CF4695F1DF08C0161617061806991FE9
:1014B000F1CF86957105610508940895E894BB27DE
:1014C00066277727CB0197F90895052E97FB1EF421
:1014D00000940E947C0A57FD07D00E94CE0A07FCA8
:1014E00003D04EF40C947C0A50954095309521958C
:1014F0003F4F4F4F5F4F0895909580957095619540
:101500007F4F8F4F9F4F08950E94F00AA59F900D27
:10151000B49F900DA49F800D911D11240895B7FFD5
:101520000C94840A0E94840A821B930B08952F92C4
:101530003F924F925F926F927F928F929F92AF9263
:10154000BF92CF92DF92EF92FF920F931F93CF93B0
:10155000DF93CDB7DEB7CA1BDB0B0FB6F894DEBF47
:101560000FBECDBF09942A88398848885F846E846D
:101570007D848C849B84AA84B984C884DF80EE80B7
:10158000FD800C811B81AA81B981CE0FD11D0FB6C0
:10159000F894DEBF0FBECDBFED010895A1E21A2E73
:1015A000AA1BBB1BFD010DC0AA1FBB1FEE1FFF1F07
:1015B000A217B307E407F50720F0A21BB30BE40B57
:1015C000F50B661F771F881F991F1A9469F760959E
:1015D0007095809590959B01AC01BD01CF01089558
:1015E000A29FB001B39FC001A39F700D811D112464
:1015F000911DB29F700D811D1124911D0895EE0F54
:10160000FF1F0590F491E02D09940E94830908F4CE
:101610008FEF08950F931F93CF93DF93823091053F
:1016200010F482E090E0E091C401F091C50130E057
:1016300020E0B0E0A0E0309799F42115310509F4DD
:101640004AC0281B390B24303105D8F58A819B818B
:101650006115710589F1FB0193838283FE0111C03D
:10166000408151810281138148175907E0F04817E2
:10167000590799F4109761F012960C9312971396EC
:101680001C933296CF01DF91CF911F910F91089556
:101690000093C4011093C501F4CF2115310551F019
:1016A0004217530738F0A901DB019A01BD01DF01A0
:1016B000F801C1CFEF01F9CF9093C5018093C40128
:1016C000CDCFFE01E20FF31F819391932250310998
:1016D00039832883D7CF2091C2013091C301232BB6
:1016E00041F420910201309103013093C301209312
:1016F000C20120910001309101012115310541F411
:101700002DB73EB74091040150910501241B350BC4
:10171000E091C201F091C301E217F307A0F42E1B80
:101720003F0B2817390778F0AC014E5F5F4F241745
:10173000350748F04E0F5F1F5093C3014093C2011D
:10174000819391939FCFF0E0E0E09CCFCF93DF9324
:101750000097E9F0FC01329713821282A091C40134
:10176000B091C501ED0130E020E01097A1F4208197
:101770003181820F931F2091C2013091C30128173C
:10178000390709F061C0F093C301E093C201DF9112
:10179000CF910895EA01CE17DF07E8F54A815B8112
:1017A0009E0141155105B1F7E901FB83EA83499197
:1017B0005991C40FD51FEC17FD0761F48081918109
:1017C0000296840F951FE901998388838281938112
:1017D0009B838A83F0E0E0E012968D919C911397B1
:1017E0000097B9F52D913C911197CD010296820F8A
:1017F000931F2091C2013091C3012817390739F690
:10180000309751F51092C5011092C401B093C301F5
:10181000A093C201BCCFD383C28340815181840F86
:10182000951FC817D90761F44E5F5F4F8881998172
:10183000480F591F518340838A819B819383828300
:101840002115310509F0B0CFF093C501E093C40133
:101850009ECFFD01DC01C0CF13821282D7CFB0E052
:10186000A0E0E5E3FCE00C94990A8C01009751F4A8
:10187000CB010E940A0B8C01C801CDB7DEB7E0E1B5
:101880000C94B50AFC01E60FF71F9C0122503109A8
:10189000E217F30708F49DC0D901CD91DC911197AF
:1018A000C617D70798F0C530D10530F3CE0104979D
:1018B0008617970708F3C61BD70B2297C193D193BE
:1018C0006D937C93CF010E94A60BD6CF5B01AC1A1F
:1018D000BD0A4C018C0E9D1EA091C401B091C501A2
:1018E000512C412CF12CE12C109731F58091C20143
:1018F0009091C3018815990509F05CC046165706FA
:1019000008F058C08091000190910101009741F4C6
:101910008DB79EB74091040150910501841B950B32
:10192000E817F90708F055C0F093C301E093C2012E
:10193000F90171836083A0CF8D919C9111971296CC
:101940006C90129713967C901397A815B90559F5CA
:101950006C0142E0C40ED11CCA14DB0420F1AC01BE
:101960004A195B09DA011296159780F06282738238
:1019700051834083D9016D937C93E114F10471F09C
:10198000D7011396FC93EE93129776CF22968C0F85
:101990009D1FF90191838083F301EFCFF093C5017F
:1019A000E093C40169CF4816590608F42C017D0163
:1019B000D3019ACFCB010E940A0B7C01009749F01A
:1019C000AE01B8010E94EC0CC8010E94A60B870171
:1019D00053CF10E000E050CFFB01DC0102C00190CA
:1019E0000D9241505040D8F70895FB01DC01019061
:0C19F0000D920020E1F70895F894FFCF5D
:1019FC000000C6018000000000004002A001CD01E3
:0C1A0C008D02FE01DC01F0010D0A00005B
:00000001FF
