:100000000C94E0000C9408010C9408010C94080175
:100010000C9408010C9408010C9408010C9408013C
:100020000C9408010C9408010C9408010C9408012C
:100030000C9408010C9408010C9408010C9408011C
:100040000C94DD050C9408010C944D060C942706C5
:100050000C9408010C9408010C9408010C940801FC
:100060000C94C2040C94080100407A10F35A00A0CA
:10007000724E18090010A5D4E80000E87648170071
:1000800000E40B54020000CA9A3B000000E1F505B1
:10009000000080969800000040420F000000A086FB
:1000A00001000000102700000000E803000000002D
:1000B0006400000000000A000000000001000000D1
:1000C00000002C76D888DC674F0823DFC1DFAE59EB
:1000D000E1B1B796E5E3E453C63AE651997696E87E
:1000E000E6C28426EB898C9B62ED407C6FFCEFBC02
:1000F0009C9F40F2BAA56FA5F490055A2AF75C932D
:100100006B6CF9676DC11BFCE0E40D47FEF520E662
:10011000B500D0ED902E0300943577050080841E45
:10012000080000204E0A000000C80C333333330FA0
:10013000986E12831141EF8D2114893BE65516CF3D
:10014000FEE6DB18D1844B381BF77C1D901DA4BB49
:10015000E424203284725E228100C9F124ECA1E5FE
:100160003D270000000023002600290000000008B1
:10017000000201000003040700000000000000006E
:1001800000000000250028002B00000000002400D3
:1001900027002A00040404040404040402020202E6
:1001A000020203030303030301020408102040803A
:1001B0000102040810200102040810207F06310803
:1001C00011241FBECFEFD8E0DEBFCDBF11E0A0E00D
:1001D000B1E0E6EDFAE102C005900D92A432B1075C
:1001E000D9F722E0A4E2B1E001C01D92A035B20728
:1001F000E1F710E0CFEDD0E004C02197FE010E94AE
:10020000660BCE3DD107C9F70E94B0060C945E0D77
:100210000C940000CF93DF9390E0FC01E855FE4F73
:1002200024918C569E4FFC0184918823C1F090E06C
:10023000880F991FFC01E657FE4FC591D491FC0130
:10024000E058FE4FA591B4919FB7F8948881E22FB2
:10025000E0958E2388838C91E823EC939FBFDF91F8
:10026000CF91089520915401260F3327331F213257
:100270003105ECF420917801FC0190E080E024301D
:1002800069F082E00895A09154012191AC014C5C89
:100290005E4FA40FB52FB11D2C930196861798F3CE
:1002A00080915401680F6093540180E0089581E0CB
:1002B000089508958FEF9FEF08958FEF9FEF0895B2
:1002C00080912D0190E09195819591090895CF93AA
:1002D000DF93CB01EA01642F0E943201CE01DF914E
:1002E000CF910895CF93DF931F92CDB7DEB7698387
:1002F00061E0CE0101960E94320181E090E00F9012
:10030000DF91CF910895833081F028F4813099F006
:100310008230A9F008958730A9F08830C9F0843080
:10032000B1F4809180008F7D03C0809180008F7731
:1003300080938000089584B58F7784BD089584B537
:100340008F7DFBCF8091B0008F778093B0000895B0
:100350008091B0008F7DF9CF1F93CF93DF93282F2B
:1003600030E0F901E459FE4F8491F901E855FE4F60
:10037000D491F901EC56FE4FC491CC23A9F0162F6D
:1003800081110E948301EC2FF0E0EE0FFF1FE05877
:10039000FE4FA591B4918FB7F894EC91111108C05C
:1003A000D095DE23DC938FBFDF91CF911F9108950D
:1003B000DE2BF8CF8E50806480937C0080917A0091
:1003C000806480937A0080917A0086FDFCCF8091D2
:1003D0007800909179000895AF92BF92CF92DF920A
:1003E000EF92FF920F931F93CF93DF936C017B01EA
:1003F0008B01040F151FEB015E01AE18BF08C0177B
:10040000D10759F06991D601ED91FC910190F081ED
:10041000E02DC6010995892B79F7C501DF91CF91B0
:100420001F910F91FF90EF90DF90CF90BF90AF9012
:10043000089590E080E00895FC01538D448D252FB0
:1004400030E0842F90E0821B930B541710F0CF966E
:10045000089501970895FC01918D828D981761F0A0
:10046000A28DAE0FBF2FB11D5D968C91928D9F5FB7
:100470009F73928F90E008958FEF9FEF0895FC0196
:10048000918D828D981731F0828DE80FF11D858D49
:1004900090E008958FEF9FEF0895FC01918D228DDC
:1004A000892F90E0805C9F4F821B91098F73992761
:1004B00008958EE991E00E944D0221E0892B09F414
:1004C00020E0822F089580E090E0892B29F00E949F
:1004D000590281110C9400000895FC01A48DA80F0D
:1004E000B92FB11DA35ABF4F2C91848D90E0019676
:1004F0008F739927848FA689B7892C93A089B18996
:100500008C91837080648C93938D848D981306C036
:100510000288F389E02D80818F7D80830895EF929A
:10052000FF920F931F93CF93DF93EC0181E0888FAD
:100530009B8D8C8D98131AC0E889F989808185FF7D
:1005400015C09FB7F894EE89FF896083E889F9891F
:1005500080818370806480839FBF81E090E0DF9121
:10056000CF911F910F91FF90EF900895F62E0B8D74
:1005700010E00F5F1F4F0F731127E02E8C8D8E112F
:100580000CC00FB607FCFACFE889F989808185FF96
:10059000F5CFCE010E946D02F1CFEB8DEC0FFD2F58
:1005A000F11DE35AFF4FF0829FB7F8940B8FEA8951
:1005B000FB8980818062CFCFCF93DF93EC01888D60
:1005C0008823B9F0AA89BB89E889F9898C9185FDCE
:1005D00003C0808186FD0DC00FB607FCF7CF8C915C
:1005E00085FFF2CF808185FFEDCFCE010E946D02A5
:1005F000E9CFDF91CF9108958F929F92AF92BF92F2
:100600000F931F93CF93DF93CDB7DEB7A1970FB6AC
:10061000F894DEBF0FBECDBF19A2423008F44AE005
:100620008E010F5D1F4F842E912CB12CA12CA501A2
:1006300094010E94350BE62FB901CA01EA3044F556
:10064000E05DD801EE938D01232B242B252B79F728
:1006500090E080E0109769F0FD0101900020E9F73B
:100660003197AF014A1B5B0BBD018EE991E00E94FF
:10067000EC01A1960FB6F894DEBF0FBECDBFDF919F
:10068000CF911F910F91BF90AF909F908F90089541
:10069000E95CD7CF1F93CF93DF9385ED8093BC00A8
:1006A0008091300190913101A0913201B0913301DC
:1006B0000796A11DB11D23E0B695A795979587953F
:1006C0002A95D1F72091BC0024FD03C01092780137
:1006D00052C04091300150913101609132017091CE
:1006E0003301452B462B472B69F30097A105B10534
:1006F00041F02AE22A95F1F700C00197A109B1095A
:10070000E1CF80912F01C1E0C0932E01882399F1A0
:10071000D091B8001091BA008091BC008A7B809380
:10072000BC0060E082E10E94AC0160E083E10E94D5
:10073000AC0110927801C0937A011092790161E0C6
:1007400082E10E94AC0161E083E10E94AC018091F2
:10075000B9008E7F8093B9008091B9008D7F80931E
:10076000B90088E48093B80085E48093BC001093BE
:10077000BA00D093B800DF91CF911F9108950F93E5
:100780001F93CF93DF93EC0188819981009759F0F3
:100790002A813B812617370730F081E0DF91CF9126
:1007A0001F910F9108958B016F5F7F4F0E94910CF5
:1007B000009759F0998388831B830A832C813D819C
:1007C000232B59F7FC011082E8CF80E0E7CFEF92AE
:1007D000FF920F931F93CF93DF936115710541F43F
:1007E00080E0DF91CF911F910F91FF90EF900895DE
:1007F00041155105B1F07B01EC010C811D81040F05
:10080000151FB8010E94BF03882351F32881398145
:100810008C819D81B701820F931F0E94570D1D830C
:100820000C8381E0DECFCF93DF93EC018881998147
:10083000009711F00E94080C198218821D821C82F8
:100840001B821A82DF91CF910895EF92FF920F934E
:100850001F93CF93DF9300D0CDB7DEB78C018CE22E
:1008600089831A82F801E480F580FFEFEF1AFF0A0E
:10087000B701C8010E94BF038823C9F0F801208195
:10088000318184819581BE016F5F7F4F820F931FFD
:100890000E94570DF801F582E482C8010F900F9075
:1008A000DF91CF911F910F91FF90EF900895C801B4
:1008B0000E941304F2CFEF92FF920F931F93CF93F6
:1008C000DF93EC017B018A01BA010E94BF03811111
:1008D0000BC0CE010E941304CE01DF91CF911F9176
:1008E0000F91FF90EF9008951D830C83B7018881CD
:1008F00099810E94570DF0CFEF92FF920F931F93B3
:10090000CF93DF93CDB7DEB7A1970FB6F894DEBFD4
:100910000FBECDBF7C01CB01BA01F701118210825D
:1009200013821282158214828E010F5F1F4F22E004
:1009300044E00E943A080097C9F0FC0101900020B1
:10094000E9F73197AF01481B590BBC01C7010E9461
:100950005B04A1960FB6F894DEBF0FBECDBFDF914A
:10096000CF911F910F91FF90EF900895C7010E94C2
:100970001304EFCFFC0180819181009711F00C945A
:10098000080C08951F920F920FB60F9211242F9307
:100990003F934F935F936F937F938F939F93AF9307
:1009A000BF93EF93FF938091B900887F803609F45D
:1009B0004AC0F0F5883209F4A5C018F5803109F471
:1009C00099C0B8F4882309F4F5C0883009F492C0BE
:1009D000FF91EF91BF91AF919F918F917F916F9117
:1009E0005F914F913F912F910F900FBE0F901F90ED
:1009F0001895883109F486C0803251F780937701C9
:100A000014C0803409F49BC040F48033B9F38833B8
:100A1000F9F68093770185ECAEC0803509F483C088
:100A2000883509F494C0883499F60E944A03D0CFDF
:100A3000883909F48AC038F5883729F050F48836A7
:100A400011F0803729F683E08093780110927601C7
:100A500055C0883809F479C0803919F0803809F018
:100A6000B7CF80917601803208F06FC0E0917601B7
:100A700081E08E0F809376018091BB00F0E0EA5A0E
:100A8000FE4F80833BC0803B39F0D0F4803A09F4BC
:100A900077C0883A09F09CCF84E080937801109267
:100AA000550110925401F0E0E0E009958091540165
:100AB00081110FC081E0809354011092340109C06C
:100AC000803C09F4A8CF883C09F4A5CF883B09F005
:100AD0007FCFE091550181E08E0F80935501F0E0CA
:100AE000EC5CFE4F80818093BB009091550180911A
:100AF000540129C080919D018093BB0085EC8093B7
:100B0000BC0066CF90919C0180919B01981758F58D
:100B1000E0919C0181E08E0F80939C01F0E0E5580C
:100B2000FE4F8081E9CFE0919C0181E08E0F8093A0
:100B30009C018091BB00F0E0E558FE4F80839091CE
:100B40009C0180919B019817C8F285E8D8CFE0916D
:100B50009C0181E08E0F80939C018091BB00F0E0AE
:100B6000E558FE4F808380917A0181115ECF81E04C
:100B70008093790184EA8093BC001092780128CF99
:100B800085EC8093BC0010927801809176018032D0
:100B900030F4E0917601F0E0EA5AFE4F1082609165
:100BA000760170E086E591E0F0E0E0E009951092D2
:100BB00076010ECF1092770138CF1F920F920FB6A9
:100BC0000F9211242F933F938F939F93AF93BF93D3
:100BD0008091290190912A01A0912B01B0912C01C3
:100BE0003091280123E0230F2D3758F50196A11DE0
:100BF000B11D209328018093290190932A01A0938D
:100C00002B01B0932C018091240190912501A0919A
:100C10002601B09127010196A11DB11D80932401E9
:100C200090932501A0932601B0932701BF91AF9126
:100C30009F918F913F912F910F900FBE0F901F901A
:100C4000189526E8230F0296A11DB11DD2CF1F9241
:100C50000F920FB60F9211242F933F934F935F93F0
:100C60006F937F938F939F93AF93BF93EF93FF9374
:100C70008EE991E00E946D02FF91EF91BF91AF91DB
:100C80009F918F917F916F915F914F913F912F91A4
:100C90000F900FBE0F901F9018951F920F920FB6D6
:100CA0000F9211242F938F939F93EF93FF93E091D3
:100CB000AE01F091AF018081E091B401F091B501F6
:100CC00082FD1BC090818091B7018F5F8F7320914F
:100CD000B801821741F0E091B701F0E0E256FE4F13
:100CE000958F8093B701FF91EF919F918F912F91F5
:100CF0000F900FBE0F901F9018958081F4CFEEE9F2
:100D0000F1E01382128288EE93E0A0E0B0E08483E9
:100D10009583A683B7838AE091E09183808385ECF5
:100D200090E09587848784EC90E09787868780ECB5
:100D300090E0918B808B81EC90E0938B828B82ECA6
:100D400090E0958B848B86EC90E0978B868B118E50
:100D5000128E138E148E10923C0210923B02089554
:100D6000CF93DF93CDB7DEB72C970FB6F894DEBFE5
:100D70000FBECDBF789484B5826084BD84B5816098
:100D800084BD85B5826085BD85B5816085BD809156
:100D90006E00816080936E001092810080918100CE
:100DA00082608093810080918100816080938100C6
:100DB000809180008160809380008091B100846088
:100DC0008093B1008091B00081608093B0008091E9
:100DD0007A00846080937A0080917A0082608093A8
:100DE0007A0080917A00816080937A0080917A0005
:100DF000806880937A001092C100E091AE01F0917A
:100E0000AF0182E08083E091AA01F091AB011082F2
:100E1000E091AC01F091AD0187E680831092B601BC
:100E2000E091B201F091B30186E08083E091B001DE
:100E3000F091B101808180618083E091B001F091F7
:100E4000B101808188608083E091B001F091B101AF
:100E5000808180688083E091B001F091B101808150
:100E60008F7D80838EE00E940A018FE00E940A013C
:100E700088E00E940A01CC24CA9493E0D92EE12C88
:100E8000F12C20EB222E21E0322E3CE9A32E31E082
:100E9000B32E40E0842E40E0942E8EE00E94DA01D2
:100EA0008C018FE00E94DA019C01990F440B550BD5
:100EB0002150310941095109A8EEB3E00E94EB0A23
:100EC000A70196010E94CC0ACA01B901645F714072
:100ED000810991090E94910A2B013C01012E000C0D
:100EE000220B330BA9019801215031094109510905
:100EF000A8E1BCEF0E94F90AA70196010E94CC0A62
:100F0000CA01B9016C507E4F8F4F9F4F0E94910ACA
:100F1000AB01BC01CE0101960E947C0418861F82A1
:100F20001A8619861C861B8643E050E068E171E052
:100F3000CE0107960E945B044D815E8169817A81B2
:100F4000CE0107960E94E703811104C0CE010796E7
:100F50000E941304CE0107960E942504FC014481DF
:100F60005581608171818EE991E00E94EC01CE0192
:100F700007960E94BA04CE0101960E94BA04B301FA
:100F8000A201CE0101960E947C0418861F821A8657
:100F900019861C861B8643E050E06CE171E0CE01AF
:100FA00007960E945B044D815E8169817A81CE0142
:100FB00007960E94E703811104C0CE0107960E94A4
:100FC0001304CE0107960E942504FC01448155813B
:100FD000608171818EE991E00E94EC01CE0107965B
:100FE0000E94BA04CE0101960E94BA04E4E7F1E03F
:100FF0008491F1011491F501049170E060E0002307
:1010000099F081110E948301E02FF0E0EE0FFF1FA5
:10101000EE59FE4FA591B4918C91182391E080E098
:1010200009F490E0692F782FF1E06F27072E000C6C
:10103000880B990B4AE00E94FC0242E050E060E21B
:1010400071E08EE991E00E94EC018114910409F4B1
:1010500024CF0E945902882309F41FCF0E94000068
:101060001CCF80913B0290913C02009711F00C94B0
:10107000080C0895EF920F931F93CF93DF93E8012D
:1010800034E047FD34E1042E000C550B57FF03C03C
:10109000519541955109E32E022F242FAE010E9454
:1010A0005808CE01DF91CF911F910F91EF900895D5
:1010B000A9E0B0E0EEE5F8E00C94040B6A01F22E32
:1010C000B02E102FFBE3AF2EA01608F41BE31F5F1A
:1010D000012F27E0AE014F5F5F4F0E94B709BC01AF
:1010E0008981982F9970913009F43FC09BE2E1FC0F
:1010F00004C09E2D9170E0FC3AC05E2D5071E82F27
:10110000E87083FF46C084E0911101C083E0EF2DB9
:10111000E81B8F1508F0E0E0D6018E2F20E2552362
:1011200051F1992329F0D6019C93C60101966C01D7
:1011300096012D5F3F4FE2FE24C08EE4D6018C93D2
:1011400091E411969C93119712968C93D9018E2F4E
:1011500090E281111BC0E20FF32FF11D10828EEF80
:101160009FEF2996ECE00C94200B9DE2C6CF90E215
:10117000C4CF2D9381508111FCCFCE0ED11CE0E065
:10118000D0CF8EE6D6018C9391E6DBCF9D93815034
:10119000E0CF482F447082FF3DC084E0911101C030
:1011A00083E08F1510F4EF2DE81BD6018E2F20E27F
:1011B000552309F1992329F0D6019C93C601019684
:1011C0006C0196012D5F3F4FE2FE1BC089E4D60102
:1011D0008C938EE411968C93119786E412968C93DF
:1011E000D9018E2F90E2882309F4B5CF9D938150C9
:1011F000FACF2D9381508111FCCFCE0ED11CE0E0AF
:10120000D9CF89E6D6018C938EE611968C931197EF
:1012100086E6E4CF9B0177FF02C030E020E0A1E04A
:10122000B0E0911102C0B0E0A0E0F9013196AE0F3C
:10123000BF1F8B2C912CBB2009F461C05401EFEF30
:10124000AE1ABE0AAA0DBB1DFA161B0619F014F041
:101250004F2D4A1B511188C0E3FC59C07601A42FC1
:10126000B0E2A1114FC0C40ED11C992309F45BC098
:1012700040E0D6011196F60190836D01552309F4E3
:1012800048C0012F060F9A81582F507184FF03C068
:10129000913309F4015010160CF047C0093008F0E2
:1012A00008E0EEE2FE2E5B01A01AB10885019194E0
:1012B000819491082F3F320729F4D601FC92F60160
:1012C00031966F016217730794F1021713077CF5CB
:1012D000DB01A21BB30BAA24A394B12CAC0EBD1E40
:1012E000AA0DBB1D11968C9121503109D601119682
:1012F00028153905F4F0F60180836D01DBCFB12CA0
:10130000A12CA0CFF701B1937F01A150AACF9111D9
:10131000B0CFD601942F50E302C05D93915091114C
:10132000FCCFC40ED11C40E0ACCF01E0BACF80E3CB
:10133000DBCF6217730731F4963388F4953311F4D9
:10134000552369F0F6018083FD01842F90E281111D
:1013500008C0A40FB11D1C9290E080E002CF81E391
:10136000F1CF91938150F3CF911183CF8ACF283061
:1013700008F027E03327DA01990F311D87FD9160CE
:1013800000966105710539F432602E5F3D9330E3BC
:101390002A95E1F708959F3F30F080387105610587
:1013A00009F03C5F3C5F3D93913008F08068911DEF
:1013B000DF93CF931F930F93FF92EF92192F987F94
:1013C0009695E92F96959695E90FFF27EE53FF4FD7
:1013D00099273327EE24FF24A701E70105900894FD
:1013E000079428F4360FE71EF81E491F511D660F9B
:1013F000771F881F991F0694A1F70590079428F47A
:10140000E70EF81E491F561FC11D770F881F991F31
:10141000661F0694A1F70590079428F4F80E491F5B
:10142000561FC71FD11D880F991F661F771F06946F
:10143000A1F70590079420F4490F561FC71FD81F26
:10144000990F661F771F881F0694A9F7849110953E
:10145000177041F0D695C79557954795F794E7943F
:101460001A95C1F7E8E6F0E068941590159135916A
:101470006591959105907FE27395E118F10A430B10
:10148000560BC90BD009C0F7E10CF11E431F561FC4
:10149000C91FD01D7EF4703311F48A95E6CFE8940D
:1014A000015030F0080F0AF40027021708F4202F2B
:1014B0002395022F7A3328F079E37D932A95E9F773
:1014C00010C07D932A9589F6069497956795379570
:1014D00017951794E118F10A430B560BC90BD00965
:1014E00098F023957E9173957A3308F070E37C939E
:1014F0002013B8F77E9170617D9330F0839571E38E
:101500007D9370E32A95E1F71124EF90FF900F91FE
:101510001F91CF91DF91992787FD90950895E894C9
:1015200009C097FB3EF490958095709561957F4F2B
:101530008F4F9F4F9923A9F0F92F96E9BB279395D9
:10154000F695879577956795B795F111F8CFFAF4E9
:10155000BB0F11F460FF1BC06F5F7F4F8F4F9F4F1A
:1015600016C0882311F096E911C0772321F09EE878
:10157000872F762F05C0662371F096E8862F70E0DE
:1015800060E02AF09A95660F771F881FDAF7880FB8
:101590009695879597F90895052E97FB1EF400946C
:1015A0000E94E30A57FD07D00E94350B07FC03D0C9
:1015B0004EF40C94E30A50954095309521953F4F99
:1015C0004F4F5F4F089590958095709561957F4F2F
:1015D0008F4F9F4F08950E94570BA59F900DB49F6A
:1015E000900DA49F800D911D11240895B7FF0C94B8
:1015F000EB0A0E94EB0A821B930B08952F923F92F5
:101600004F925F926F927F928F929F92AF92BF9212
:10161000CF92DF92EF92FF920F931F93CF93DF93BE
:10162000CDB7DEB7CA1BDB0B0FB6F894DEBF0FBE1B
:10163000CDBF09942A88398848885F846E847D8468
:101640008C849B84AA84B984C884DF80EE80FD806A
:101650000C811B81AA81B981CE0FD11D0FB6F894E0
:10166000DEBF0FBECDBFED010895A1E21A2EAA1B69
:10167000BB1BFD010DC0AA1FBB1FEE1FFF1FA21742
:10168000B307E407F50720F0A21BB30BE40BF50B3F
:10169000661F771F881F991F1A9469F760957095C8
:1016A000809590959B01AC01BD01CF010895A29F4B
:1016B000B001B39FC001A39F700D811D1124911D26
:1016C000B29F700D811D1124911D0895EE0FFF1F13
:1016D0000590F491E02D09940F931F93CF93DF931E
:1016E0008230910510F482E090E0E0914E02F0919A
:1016F0004F0230E020E0B0E0A0E0309799F42115EF
:10170000310509F44AC0281B390B24303105D8F5BE
:101710008A819B816115710589F1FB019383828325
:10172000FE0111C040815181028113814817590780
:10173000E0F04817590799F4109761F012960C934E
:10174000129713961C933296CF01DF91CF911F9180
:101750000F91089500934E0210934F02F4CF21157C
:10176000310551F04217530738F0A901DB019A0106
:10177000BD01DF01F801C1CFEF01F9CF90934F0216
:1017800080934E02CDCFFE01E20FF31F8193919320
:101790002250310939832883D7CF20914C023091D0
:1017A0004D02232B41F4209102013091030130932B
:1017B0004D0220934C02209100013091010121152E
:1017C000310541F42DB73EB7409104015091050118
:1017D000241B350BE0914C02F0914D02E217F30708
:1017E000A0F42E1B3F0B2817390778F0AC014E5F91
:1017F0005F4F2417350748F04E0F5F1F50934D027F
:1018000040934C02819391939FCFF0E0E0E09CCF16
:10181000CF93DF930097E9F0FC0132971382128295
:10182000A0914E02B0914F02ED0130E020E0109700
:10183000A1F420813181820F931F20914C023091BD
:101840004D022817390709F061C0F0934D02E0936B
:101850004C02DF91CF910895EA01CE17DF07E8F53A
:101860004A815B819E0141155105B1F7E901FB8376
:10187000EA8349915991C40FD51FEC17FD0761F414
:10188000808191810296840F951FE9019983888355
:10189000828193819B838A83F0E0E0E012968D91B0
:1018A0009C9113970097B9F52D913C911197CD011B
:1018B0000296820F931F20914C0230914D022817FF
:1018C000390739F6309751F510924F0210924E02B7
:1018D000B0934D02A0934C02BCCFD383C28340810E
:1018E0005181840F951FC817D90761F44E5F5F4F70
:1018F00088819981480F591F518340838A819B8138
:10190000938382832115310509F0B0CFF0934F0204
:10191000E0934E029ECFFD01DC01C0CF1382128204
:10192000D7CFB0E0A0E0E7E9FCE00C94000B8C011D
:10193000009751F4CB010E946C0B8C01C801CDB70C
:10194000DEB7E0E10C941C0BFC01E60FF71F9C01D5
:1019500022503109E217F30708F49DC0D901CD9157
:10196000DC911197C617D70798F0C530D10530F331
:10197000CE0104978617970708F3C61BD70B22974B
:10198000C193D1936D937C93CF010E94080CD6CF65
:101990005B01AC1ABD0A4C018C0E9D1EA0914E023B
:1019A000B0914F02512C412CF12CE12C109731F5C4
:1019B00080914C0290914D028815990509F05CC008
:1019C0004616570608F058C0809100019091010119
:1019D000009741F48DB79EB74091040150910501E5
:1019E000841B950BE817F90708F055C0F0934D02DA
:1019F000E0934C02F90171836083A0CF8D919C919B
:101A0000119712966C90129713967C901397A815C5
:101A1000B90559F56C0142E0C40ED11CCA14DB04AF
:101A200020F1AC014A195B09DA011296159780F092
:101A30006282738251834083D9016D937C93E11458
:101A4000F10471F0D7011396FC93EE93129776CFC1
:101A500022968C0F9D1FF90191838083F301EFCFB4
:101A6000F0934F02E0934E0269CF4816590608F4EE
:101A70002C017D01D3019ACFCB010E946C0B7C011C
:101A8000009749F0AE01B8010E944E0DC8010E94B6
:101A9000080C870153CF10E000E050CFFB01DC01C0
:101AA00002C001900D9241505040D8F70895FB01BB
:101AB000DC0101900D920020E1F7089510E0CFEDD8
:101AC000D0E004C0FE010E94660B2196C03ED10703
:061AD000C9F7F894FFCFF6
:101AD600000050028000000000008F02EC011C0292
:101AE600DC024D022B023F02583A2000593A2000F0
:041AF6000D0A0000D5
:00000001FF
