:100000000C94DF000C9407010C9407010C94070179
:100010000C9407010C9407010C9407010C94070140
:100020000C9407010C9407010C9407010C94070130
:100030000C9407010C9407010C9407010C94070120
:100040000C9432070C9407010C94C3070C949D0781
:100050000C9407010C9407010C9407010C94070100
:100060000C9407010C94070100407A10F35A00A089
:10007000724E18090010A5D4E80000E87648170071
:1000800000E40B54020000CA9A3B000000E1F505B1
:10009000000080969800000040420F000000A086FB
:1000A00001000000102700000000E803000000002D
:1000B0006400000000000A000000000001000000D1
:1000C00000002C76D888DC674F0823DFC1DFAE59EB
:1000D000E1B1B796E5E3E453C63AE651997696E87E
:1000E000E6C28426EB898C9B62ED407C6FFCEFBC02
:1000F0009C9F40F2BAA56FA5F490055A2AF75C932D
:100100006B6CF9676DC11BFCE0E40D47FEF520E662
:10011000B500D0ED902E0300943577050080841E45
:10012000080000204E0A000000C80C333333330FA0
:10013000986E12831141EF8D2114893BE65516CF3D
:10014000FEE6DB18D1844B381BF77C1D901DA4BB49
:10015000E424203284725E228100C9F124ECA1E5FE
:100160003D2700000000240027002A0000000000B6
:10017000250028002B0000000008000201000003F9
:100180000407000000000000000000000000230041
:1001900026002900040404040404040402020202E8
:1001A000020203030303030301020408102040803A
:1001B00001020408102001020408102096071124EF
:1001C0001FBECFEFD8E0DEBFCDBF11E0A0E0B1E0B1
:1001D000E4E3FDE102C005900D92AC31B107D9F71F
:1001E00021E0ACE1B1E001C01D92A63CB207E1F70D
:1001F00010E0CFEDD0E004C02197FE010E949B0CDF
:10020000CE3DD107C9F70E948D070C94980E0C942F
:1002100000008330B1F060F08730E9F0883009F1F8
:10022000843021F5E0E8F0E080818F7D80830895BF
:10023000813069F0823021F484B58F7D84BD0895CA
:100240000895E0E8F0E080818F778083089584B599
:100250008F7784BD0895E0EBF0E080818F77808315
:100260000895E0EBF0E080818F7D80830895CF9347
:10027000DF93282F30E0F901EA58FE4F8491F9010D
:10028000E855FE4FD491F901EC56FE4FC491CC23B2
:10029000B1F081110EC0EC2FF0E0EE0FFF1FE6571A
:1002A000FE4FA591B491EC91ED2331F490E080E004
:1002B00008C00E940901EFCF81E090E002C090E009
:1002C00080E0DF91CF9108951F93CF93DF93282F84
:1002D00030E0F901EA58FE4F8491F901E855FE4FEC
:1002E0001491F901EC56FE4FC491CC23A9F0D62FFE
:1002F000811116C0EC2FF0E0EE0FFF1FE459FE4F06
:10030000A591B4918FB7F894D1110DC09C91E12FB4
:10031000E095E923EC938FBFDF91CF911F91089572
:100320000E940901E7CFEC91E12BEC93F4CFCF933E
:10033000DF9390E0FC01E855FE4F24918C569E4FD0
:10034000FC018491882319F190E0880F991FFC012A
:10035000EE59FE4FA591B491FC01E459FE4FC591B1
:10036000D491662349F06230A9F08FB7F894EC91EC
:10037000E22BEC938FBF0BC09FB7F8948C91E22FC8
:10038000E0958E238C938881E823E8839FBFDF91DB
:10039000CF9108959FB7F8943C91822F8095832345
:1003A0008C93E881E22BE8839FBFF1CF8E3008F079
:1003B0008E508770806480937C00EAE7F0E0808153
:1003C0008064808380917A0086FDFCCF80917800E4
:1003D000909179000895789484B5826084BD84B545
:1003E000816084BD85B5826085BD85B5816085BD30
:1003F000EEE6F0E0808181608083E1E8F0E0108249
:10040000808182608083808181608083E0E8F0E089
:10041000808181608083E1EBF0E080818460808373
:10042000E0EBF0E0808181608083EAE7F0E08081AA
:10043000846080838081826080838081816080830A
:100440008081806880831092C10008958230910578
:1004500038F0880F991F880F991F05970197F1F7BA
:10046000089508954F925F926F927F92AF92BF92DC
:10047000CF92DF92EF92FF920F931F93CF93DF9370
:10048000CDB7DEB729013A019B01AC01241935092A
:100490004609570989899A89AB89BC89BC01CD0174
:1004A0006A197B098C099D090E948B0CA801970190
:1004B00024193509460957090E94F90BCA01B901E7
:1004C0006A0D7B1D8C1D9D1DDF91CF911F910F919A
:1004D000FF90EF90DF90CF90BF90AF907F906F90A4
:1004E0005F904F900895DB0114964D915C911597A4
:1004F0006D917C91DC01ED91FC910280F381E02D06
:1005000009950895CF92DF92EF92FF920F931F9378
:10051000CF93DF938C01DB01D0E0C0E07A0181E072
:10052000E81AF108452BA1F0F80180819181FC01C6
:10053000208131816D01FFEFCF1ADF0A6C91C80174
:10054000F9010995892B21F02196A701D601E6CF63
:10055000CE01DF91CF911F910F91FF90EF90DF902F
:10056000CF900895019709F008956F3F7F4FE1F70D
:10057000ECE1F1E01382128288EE93E0A0E0B0E0BB
:1005800084839583A683B7838AE091E091838083F7
:1005900085EC90E09587848784EC90E09787868748
:1005A00080EC90E0918B808B81EC90E0938B828B40
:1005B00082EC90E0958B848B86EC90E0978B868B19
:1005C000118E128E138E148ECFCFFC01938D848DDD
:1005D000981720F4891B990B019708952FE330E0B9
:1005E000291B3109820F932F911D0895FC01918DD4
:1005F000828D981761F0A28DAE0FBF2FB11D5D9651
:100600008C91928D9F5F9F73928F90E008958FEFF2
:100610009FEF0895FC01918D828D981731F0828DA6
:10062000E80FF11D858D90E008958FEF9FEF0895FD
:10063000FC01218D30E0205C3F4F828DA901481BD9
:100640005109CA018F73992708958CE191E00E94A6
:10065000180321E0892B09F420E0822F0895CF921E
:10066000DF92EF92FF921F93CF93DF93EC016A0129
:100670007B01122F60E079E08DE390E0A701960105
:100680000E945A0C2150310941095109569547954C
:1006900037952795E889F98982E08083C11481EE36
:1006A000D806E104F10421F0211580E1380798F023
:1006B000E889F989108260E874E88EE190E0A7018A
:1006C00096010E945A0C2150310941095109569551
:1006D000479537952795EC85FD853083EE85FF8519
:1006E0002083188EEC89FD891083EA89FB8980813B
:1006F00080618083EA89FB89808188608083EA89C0
:10070000FB89808180688083EA89FB8980818F7D75
:100710008083DF91CF911F91FF90EF90DF90CF907A
:100720000895FC01A48DA80FB92FB11DA35ABF4F86
:100730002C91848D90E001968F739078848FA68998
:10074000B7892C93A089B1898C91837080648C9334
:10075000938D848D981308950288F389E02D80810C
:100760008F7D8083F8CF0F931F93CF93DF93EC019E
:1007700081E0888F9B8D8C8D9817B1F0062F8B8D23
:1007800090E001968F739078182F8C8D81131EC086
:100790000FB607FCFACFE889F989808185FFF5CF8C
:1007A000CE010E949103F1CFE889F989808185FF0C
:1007B000E5CF9FB7F894EE89FF896083E889F989CE
:1007C00080818370806480839FBF10C0EB8DEC0FAD
:1007D000FD2FF11DE35AFF4F00839FB7F8941B8F45
:1007E000EA89FB898081806280839FBF81E090E0FD
:1007F000DF91CF911F910F910895CF93DF93EC017B
:10080000888D811104C00DC00FB607FE0DC0EA89A6
:10081000FB89808185FDF8CFA889B9898C9186FFF5
:10082000F3CFDF91CF910895808185FFF0CFE889E4
:10083000F989808185FFEBCFCE010E949103E7CF3C
:1008400080E090E0892B21F00E942503811101C0F6
:1008500008950E940000FCCF26E040E05BE460E0E9
:1008600070E08CE191E00E942F0360E08EE00E9436
:10087000970160E08FE00E94970160E088E00E94AD
:10088000970161E085E00E94970160E086E00E94A8
:10089000970108950F931F9390E0FC01E855FE4FD8
:1008A0007491FC01EC56FE4FE4916111672F8901B0
:1008B0009A013F70F0E0EE0FFF1FE657FE4F859163
:1008C0009491462F672F0E94FB07611571058105E2
:1008D000910529F06F5F7F4F8F4F9F4F9F701F9142
:1008E0000F910895DC01ED91FC910280F381E02DE0
:1008F00042E050E068E171E0099508950F931F937D
:10090000CF93DF93EC010E9473028C01CE010E9411
:100910007204800F911FDF91CF911F910F91089565
:100920000F931F93CF93DF93EC018B016F5F7F4F8A
:10093000888199810E94CB0D009751F0998388831B
:100940001B830A8381E0DF91CF911F910F9108955E
:1009500080E0F9CFCF93DF93EC0128813981232BFD
:1009600029F02A813B812617370770F4CE010E94B7
:100970009004882351F08C819D81892B49F4E88172
:10098000F981108281E001C081E0DF91CF9108956B
:1009900081E0FBCFEF92FF920F931F93CF93DF93F2
:1009A000FC01C481D581C40FD51F6115710501F10A
:1009B000452B41F481E0DF91CF911F910F91FF9082
:1009C000EF9008957B018C01BE010E94AA04882348
:1009D00091F3F8012081318184819581B701820FE3
:1009E000931F0E94910EF801D583C48381E0E3CF69
:1009F00080E0E1CFCF93DF9300D0CDB7DEB769833E
:100A00001A8241E050E0BE016F5F7F4F0E94CA042E
:100A10000F900F90DF91CF910895CF93DF93EC016A
:100A200088819981009711F00E94420D19821882E5
:100A30001D821C821B821A82DF91CF910895CF9371
:100A4000DF93EC010E94FA04882321F0CE01DF91AC
:100A5000CF910895CE010E940D05F8CFCF93DF937B
:100A6000EC01FB0144815581608171810E94CA04BF
:100A7000882321F0CE01DF91CF910895CE010E940D
:100A80000D05F8CFEF92FF920F931F93CF93DF9353
:100A9000EC017B018A01BA010E94AA04882379F043
:100AA0001D830C83B701888199810E94910ECE012C
:100AB000DF91CF911F910F91FF90EF900895CE019C
:100AC0000E940D05F4CFCF93DF93EC016115710502
:100AD00071F0FB0101900020E9F73197AF01461B4F
:100AE000570B0E944205CE01DF91CF9108950E94DD
:100AF0000D05F9CFCF93DF93EC01FB018617970724
:100B000049F0608171816115710541F04481558121
:100B10000E944205CE01DF91CF9108950E940D05FC
:100B2000F9CFFC0111821082138212821582148285
:100B30000E947A050895FC0180819181009711F04F
:100B40000E94420D0895EF92FF920F931F93CF934F
:100B5000DF93CDB7DEB7A1970FB6F894DEBF0FBE17
:100B6000CDBF7C01CB01BA01F70111821082138243
:100B700012821582148242E0420F8E010F5F1F4FD6
:100B80000E944008BC01C7010E946305A1960FB6F0
:100B9000F894DEBF0FBECDBFDF91CF911F910F91B3
:100BA000FF90EF9008950F931F93CF93DF93CDB7EE
:100BB000DEB762970FB6F894DEBF0FBECDBF8C01D3
:100BC000CB01F801118210821382128215821482E5
:100BD00050E0BE016F5F7F4F0E945E08BE016F5FF5
:100BE0007F4FC8010E94630562960FB6F894DEBF7E
:100BF0000FBECDBFDF91CF911F910F9108952F921E
:100C00003F924F925F926F927F928F929F92AF929C
:100C1000BF92CF92DF92EF92FF920F931F93CF93E9
:100C2000DF93CDB7DEB76E970FB6F894DEBF0FBE79
:100C3000CDBF8EE00E94D6013C018FE00E94D6011C
:100C40004C01B301770C880B990B1F921F92222441
:100C500023942F920F2EF4EF3F2EF02D3F920F2E64
:100C6000FCE0AF2EFEEFBF2ECC24CA94DC2CF02D7E
:100C7000E12C14E0F12E00E010E021E030E040E053
:100C800050E00E9432020F900F900F900F900E9440
:100C9000DC0A2B013C01B401990C880B990B1F92C3
:100CA0001F922F923F9221E030E040E050E00E94FE
:100CB00032020F900F900F900F900E94DC0A4B01B0
:100CC0005C0120E030E040E85FE3C301B2010E9434
:100CD000D50A88230CF4B7C020E030E040EA51E4A4
:100CE000C501B4010E94D50A88236CF420E030E0ED
:100CF00040EA50ECC501B4010E94A10C18161CF486
:100D0000812C912C540160E085E00E94640182E016
:100D100090E00E94260261E085E00E9464018AE082
:100D200090E00E94260260E085E00E94640120E4D9
:100D300032E44FE050E061E086E00E944A040E9405
:100D4000DC0A2BEB38EB4DE05DE30E943B0B20E02F
:100D500030E040E05FE30E943B0BAB01BC0122E0CE
:100D6000CE0149960E94A30588E00E94370161E008
:100D700070E0892B11F070E060E04AE0CE0143960C
:100D80000E94D30522E0B501A401CE010D960E9478
:100D9000A30522E0B301A201CE0101960E94A305A2
:100DA000BE016F5F7F4FCE0107960E94910560E202
:100DB000CE0107960E941F05BE01635F7F4F0E9410
:100DC0002E0560E20E941F05BE016D5E7F4F0E94EE
:100DD0002E0560E20E941F05BE01675E7F4F0E94E4
:100DE0002E05BC018CE191E00E947E04CE010796A5
:100DF0000E949B05CE0101960E949B05CE010D9697
:100E00000E949B05CE0143960E949B05CE01499608
:100E10000E949B056E960FB6F894DEBF0FBECDBF45
:100E2000DF91CF911F910F91FF90EF90DF90CF90C6
:100E3000BF90AF909F908F907F906F905F904F90FA
:100E40003F902F90089520E030E040EA51ECC3013C
:100E5000B2010E94A10C18160CF03ECF412C512C6F
:100E600032013ACF1F920F920FB60F9211240F93B7
:100E70001F932F933F934F935F936F937F938F9322
:100E80009F93AF93BF930091BE011091BF0120913A
:100E9000C0013091C1019091BD01B901A8014F5F1E
:100EA0005F4F6F4F7F4F83E0890F8D3740F086E8AB
:100EB000890FB901A8014E5F5F4F6F4F7F4F80933D
:100EC000BD014093BE015093BF016093C001709378
:100ED000C1018091B9019091BA01A091BB01B0917B
:100EE000BC010196A11DB11D8093B9019093BA0177
:100EF000A093BB01B093BC01BF91AF919F918F9123
:100F00007F916F915F914F913F912F911F910F9121
:100F10000F900FBE0F901F9018950E94EB010E943A
:100F20002C040E94FF050E942004FBCF6FEF7FEF8F
:100F300081E090E00E94B20208951F920F920FB6D6
:100F40000F9211242F933F934F935F936F937F934F
:100F50008F939F93AF93BF93EF93FF938CE191E0B7
:100F60000E949103FF91EF91BF91AF919F918F915B
:100F70007F916F915F914F913F912F910F900FBE95
:100F80000F901F9018951F920F920FB60F92112479
:100F90002F938F939F93AF93BF93EF93FF93E09122
:100FA0002C01F0912D01808182FD14C0ECE1F1E073
:100FB000A689B7892C91818D8F5F8F73928D891748
:100FC00071F0DF01E18DF0E0E45EFE4F258F599670
:100FD0008C9305C0E0913201F09133018081FF9143
:100FE000EF91BF91AF919F918F912F910F900FBE75
:100FF0000F901F901895CF92DF92EF92FF920F9370
:101000001F93E82FF92F05C001501109210931095B
:1010100061F1908196239417B9F305C0015011092D
:101020002109310911F1908196239413F7CFC12C36
:10103000D12CE12CF12C0AC08FEFC81AD80AE80A8B
:10104000F80A0C151D052E053F0579F080818623D1
:10105000841791F36C2D7D2D8E2D9F2D1F910F9157
:10106000FF90EF90DF90CF90089560E070E080E017
:1010700090E01F910F91FF90EF90DF90CF90089537
:10108000EF920F931F93CF93DF93E80134E047FD76
:1010900034E1042E000C550B57FF03C051954195C8
:1010A0005109E32E022F242FAE010E948E08CE019B
:1010B000DF91CF911F910F91EF9008954532510527
:1010C00020F4423010F00C946908FB011082CB012F
:1010D0000895BB274A3031F4992322F4BDE290955C
:1010E00081959F4F0C947508BB27FB015527AA27B4
:1010F000880F991FAA1FA41710F0A41B83955051A5
:10110000B9F7A05DAA3308F0A95DA193009779F71C
:10111000B111B1931192CB010C94C50AA9E0B0E0D2
:10112000E4E9F8E00C94290C6A01F22EB02E102F9D
:10113000FBE3AF2EA01608F41BE31F5F012F27E08F
:10114000AE014F5F5F4F0E94ED09BC018981982F6E
:101150009970913009F43FC09BE2E1FC04C09E2DE0
:101160009170E0FC3AC05E2D5071E82FE87083FF6B
:1011700046C084E0911101C083E0EF2DE81B8F157C
:1011800008F0E0E0D6018E2F20E2552351F199239B
:1011900029F0D6019C93C60101966C0196012D5F42
:1011A0003F4FE2FE24C08EE4D6018C9391E4119669
:1011B0009C93119712968C93D9018E2F90E28111F6
:1011C0001BC0E20FF32FF11D10828EEF9FEF2996C7
:1011D000ECE00C94450C9DE2C6CF90E2C4CF2D9379
:1011E00081508111FCCFCE0ED11CE0E0D0CF8EE635
:1011F000D6018C9391E6DBCF9D938150E0CF482FB1
:10120000447082FF3DC084E0911101C083E08F15DE
:1012100010F4EF2DE81BD6018E2F20E2552309F1A3
:10122000992329F0D6019C93C60101966C01960181
:101230002D5F3F4FE2FE1BC089E4D6018C938EE404
:1012400011968C93119786E412968C93D9018E2F68
:1012500090E2882309F4B5CF9D938150FACF2D9366
:1012600081508111FCCFCE0ED11CE0E0D9CF89E6B0
:10127000D6018C938EE611968C93119786E6E4CF77
:101280009B0177FF02C030E020E0A1E0B0E09111C7
:1012900002C0B0E0A0E0F9013196AE0FBF1F8B2C69
:1012A000912CBB2009F461C05401EFEFAE1ABE0AC5
:1012B000AA0DBB1DFA161B0619F014F04F2D4A1B80
:1012C000511188C0E3FC59C07601A42FB0E2A111EE
:1012D0004FC0C40ED11C992309F45BC040E0D60175
:1012E0001196F60190836D01552309F448C0012F32
:1012F000060F9A81582F507184FF03C0913309F46F
:10130000015010160CF047C0093008F008E0EEE27A
:10131000FE2E5B01A01AB108850191948194910879
:101320002F3F320729F4D601FC92F60131966F0166
:101330006217730794F1021713077CF5DB01A21BF8
:10134000B30BAA24A394B12CAC0EBD1EAA0DBB1DD9
:1013500011968C9121503109D60111962815390525
:10136000F4F0F60180836D01DBCFB12CA12CA0CF6E
:10137000F701B1937F01A150AACF9111B0CFD6014F
:10138000942F50E302C05D9391509111FCCFC40E95
:10139000D11C40E0ACCF01E0BACF80E3DBCF6217D5
:1013A000730731F4963388F4953311F4552369F0BB
:1013B000F6018083FD01842F90E2811108C0A40F03
:1013C000B11D1C9290E080E002CF81E3F1CF9193B8
:1013D0008150F3CF911183CF8ACF283008F027E0D6
:1013E0003327DA01990F311D87FD91600096610561
:1013F000710539F432602E5F3D9330E32A95E1F7B1
:1014000008959F3F30F080387105610509F03C5F19
:101410003C5F3D93913008F08068911DDF93CF933E
:101420001F930F93FF92EF92192F987F9695E92FB4
:1014300096959695E90FFF27EE53FF4F992733278F
:10144000EE24FF24A701E70105900894079428F4EF
:10145000360FE71EF81E491F511D660F771F881FA4
:10146000991F0694A1F70590079428F4E70EF81E3B
:10147000491F561FC11D770F881F991F661F0694AD
:10148000A1F70590079428F4F80E491F561FC71FAF
:10149000D11D880F991F661F771F0694A1F705902D
:1014A000079420F4490F561FC71FD81F990F661FB6
:1014B000771F881F0694A9F784911095177041F043
:1014C000D695C79557954795F794E7941A95C1F720
:1014D000E8E6F0E068941590159135916591959145
:1014E00005907FE27395E118F10A430B560BC90B87
:1014F000D009C0F7E10CF11E431F561FC91FD01DB4
:101500007EF4703311F48A95E6CFE894015030F000
:10151000080F0AF40027021708F4202F2395022F42
:101520007A3328F079E37D932A95E9F710C07D930B
:101530002A9589F606949795679537951795179488
:10154000E118F10A430B560BC90BD00998F023950B
:101550007E9173957A3308F070E37C932013B8F78B
:101560007E9170617D9330F0839571E37D9370E39C
:101570002A95E1F71124EF90FF900F911F91CF91E1
:10158000DF91992787FD90950895DC01FC01672F75
:1015900071917723E1F7329704C07C916D9370834A
:1015A0006291AE17BF07C8F308950E94170B08F4A5
:1015B00081E00895E89409C097FB3EF490958095EA
:1015C000709561957F4F8F4F9F4F9923A9F0F92F09
:1015D00096E9BB279395F695879577956795B79587
:1015E000F111F8CFFAF4BB0F11F460FF1BC06F5F6D
:1015F0007F4F8F4F9F4F16C0882311F096E911C07F
:10160000772321F09EE8872F762F05C0662371F09F
:1016100096E8862F70E060E02AF09A95660F771FB3
:10162000881FDAF7880F9695879597F90895990F8F
:101630000008550FAA0BE0E8FEEF16161706E8079C
:10164000F907C0F012161306E407F50798F0621BBD
:10165000730B840B950B39F40A2661F0232B242B92
:10166000252B21F408950A2609F4A140A6958FEFB1
:10167000811D811D08950E944E0B0C94BF0B0E948A
:10168000B10B38F00E94B80B20F0952311F00C94A8
:10169000A80B0C94AE0B11240C94F30B0E94D00BEE
:1016A00070F3959FC1F3950F50E0551F629FF001B5
:1016B000729FBB27F00DB11D639FAA27F00DB11DCE
:1016C000AA1F649F6627B00DA11D661F829F222757
:1016D000B00DA11D621F739FB00DA11D621F839FDE
:1016E000A00D611D221F749F3327A00D611D231FB4
:1016F000849F600D211D822F762F6A2F11249F5702
:1017000050409AF0F1F088234AF0EE0FFF1FBB1F04
:10171000661F771F881F91505040A9F79E3F5105C3
:1017200080F00C94A80B0C94F30B5F3FE4F3983E0D
:10173000D4F3869577956795B795F795E7959F5F6D
:10174000C1F7FE2B880F911D9695879597F90895FF
:1017500097F99F6780E870E060E008959FEF80EC64
:10176000089500240A941616170618060906089507
:1017700000240A9412161306140605060895092E6D
:101780000394000C11F4882352F0BB0F40F4BF2BDC
:1017900011F460FF04C06F5F7F4F8F4F9F4F08951C
:1017A00057FD9058440F551F59F05F3F71F0479512
:1017B000880F97FB991F61F09F3F79F087950895F7
:1017C000121613061406551FF2CF4695F1DF08C016
:1017D000161617061806991FF1CF86957105610533
:1017E00008940895E894BB2766277727CB0197F9DB
:1017F0000895052E97FB1EF400940E94100C57FDCF
:1018000007D00E945A0C07FC03D04EF40C94100C25
:1018100050954095309521953F4F4F4F5F4F08951C
:1018200090958095709561957F4F8F4F9F4F08954C
:101830000E947C0CA59F900DB49F900DA49F800DDD
:10184000911D112408952F923F924F925F926F92B3
:101850007F928F929F92AF92BF92CF92DF92EF9240
:10186000FF920F931F93CF93DF93CDB7DEB7CA1BC1
:10187000DB0B0FB6F894DEBF0FBECDBF09942A88EC
:10188000398848885F846E847D848C849B84AA8494
:10189000B984C884DF80EE80FD800C811B81AA8121
:1018A000B981CE0FD11D0FB6F894DEBF0FBECDBFEC
:1018B000ED010895A1E21A2EAA1BBB1BFD010DC06C
:1018C000AA1FBB1FEE1FFF1FA217B307E407F507F0
:1018D00020F0A21BB30BE40BF50B661F771F881FCC
:1018E000991F1A9469F760957095809590959B0162
:1018F000AC01BD01CF010895A29FB001B39FC0010B
:10190000A39F700D811D1124911DB29F700D811D2B
:101910001124911D0895DB018F939F930E94180C51
:10192000BF91AF91A29F800D911DA39F900DB29F7B
:10193000900D11240895EE0FFF1F0590F491E02DF6
:1019400009940E94170B08F48FEF08950F931F93CB
:10195000CF93DF938230910510F482E090E0E09124
:10196000C401F091C50130E020E0B0E0A0E0309784
:1019700099F42115310509F44AC0281B390B24308C
:101980003105D8F58A819B816115710589F1FB01CB
:1019900093838283FE0111C04081518102811381B2
:1019A00048175907E0F04817590799F4109761F064
:1019B00012960C93129713961C933296CF01DF91D7
:1019C000CF911F910F9108950093C4011093C50109
:1019D000F4CF2115310551F04217530738F0A90112
:1019E000DB019A01BD01DF01F801C1CFEF01F9CFA1
:1019F0009093C5018093C401CDCFFE01E20FF31F88
:101A0000819391932250310939832883D7CF209134
:101A1000C2013091C301232B41F420910201309186
:101A200003013093C3012093C20120910001309142
:101A300001012115310541F42DB73EB74091040154
:101A400050910501241B350BE091C201F091C301B7
:101A5000E217F307A0F42E1B3F0B2817390778F085
:101A6000AC014E5F5F4F2417350748F04E0F5F1FE4
:101A70005093C3014093C201819391939FCFF0E0B3
:101A8000E0E09CCFCF93DF930097E9F0FC01329721
:101A900013821282A091C401B091C501ED0130E022
:101AA00020E01097A1F420813181820F931F2091B3
:101AB000C2013091C3012817390709F061C0F093C2
:101AC000C301E093C201DF91CF910895EA01CE17DF
:101AD000DF07E8F54A815B819E0141155105B1F7A9
:101AE000E901FB83EA8349915991C40FD51FEC1793
:101AF000FD0761F4808191810296840F951FE901B1
:101B000099838883828193819B838A83F0E0E0E0DC
:101B100012968D919C9113970097B9F52D913C9158
:101B20001197CD010296820F931F2091C20130912F
:101B3000C3012817390739F6309751F51092C501BE
:101B40001092C401B093C301A093C201BCCFD38350
:101B5000C28340815181840F951FC817D90761F452
:101B60004E5F5F4F88819981480F591F5183408391
:101B70008A819B81938382832115310509F0B0CF3F
:101B8000F093C501E093C4019ECFFD01DC01C0CFFD
:101B900013821282D7CFB0E0A0E0E1EDFDE00C941B
:101BA000250C8C01009751F4CB010E94A60C8C01EE
:101BB000C801CDB7DEB7E0E10C94410CFC01E60FA3
:101BC000F71F9C0122503109E217F30708F49DC06A
:101BD000D901CD91DC911197C617D70798F0C53080
:101BE000D10530F3CE0104978617970708F3C61B7B
:101BF000D70B2297C193D1936D937C93CF010E9411
:101C0000420DD6CF5B01AC1ABD0A4C018C0E9D1E55
:101C1000A091C401B091C501512C412CF12CE12CB3
:101C2000109731F58091C2019091C30188159905F3
:101C300009F05CC04616570608F058C080910001B4
:101C400090910101009741F48DB79EB74091040136
:101C500050910501841B950BE817F90708F055C052
:101C6000F093C301E093C201F90171836083A0CFB7
:101C70008D919C91119712966C90129713967C906F
:101C80001397A815B90559F56C0142E0C40ED11C93
:101C9000CA14DB0420F1AC014A195B09DA0112967F
:101CA000159780F06282738251834083D9016D93CE
:101CB0007C93E114F10471F0D7011396FC93EE9339
:101CC000129776CF22968C0F9D1FF9019183808306
:101CD000F301EFCFF093C501E093C40169CF48163B
:101CE000590608F42C017D01D3019ACFCB010E9443
:101CF000A60C7C01009749F0AE01B8010E94880E45
:101D0000C8010E94420D870153CF10E000E050CF80
:101D1000FB01DC0102C001900D9241505040D8F708
:101D20000895FB01DC0101900D920020E1F7089578
:041D3000F894FFCF55
:101D34000000C601800000000000B3038202E50237
:0C1D4400FD031803F6020A030D0A00005C
:00000001FF
